{
  "contractName": "GoodAuction",
  "abi": [
    {
      "constant": true,
      "inputs": [],
      "name": "getHighestBidder",
      "outputs": [
        {
          "name": "",
          "type": "address"
        }
      ],
      "payable": false,
      "stateMutability": "view",
      "type": "function"
    },
    {
      "constant": true,
      "inputs": [],
      "name": "getHighestBid",
      "outputs": [
        {
          "name": "",
          "type": "uint256"
        }
      ],
      "payable": false,
      "stateMutability": "view",
      "type": "function"
    },
    {
      "payable": true,
      "stateMutability": "payable",
      "type": "fallback"
    },
    {
      "constant": false,
      "inputs": [],
      "name": "bid",
      "outputs": [
        {
          "name": "",
          "type": "bool"
        }
      ],
      "payable": true,
      "stateMutability": "payable",
      "type": "function"
    },
    {
      "constant": false,
      "inputs": [],
      "name": "withdrawRefund",
      "outputs": [
        {
          "name": "",
          "type": "bool"
        }
      ],
      "payable": false,
      "stateMutability": "nonpayable",
      "type": "function"
    },
    {
      "constant": true,
      "inputs": [],
      "name": "getMyBalance",
      "outputs": [
        {
          "name": "",
          "type": "uint256"
        }
      ],
      "payable": false,
      "stateMutability": "view",
      "type": "function"
    },
    {
      "constant": false,
      "inputs": [],
      "name": "reduceBid",
      "outputs": [],
      "payable": false,
      "stateMutability": "nonpayable",
      "type": "function"
    }
  ],
  "bytecode": "0x6060604052341561000f57600080fd5b6105728061001e6000396000f300606060405260043610610077576000357c0100000000000000000000000000000000000000000000000000000000900463ffffffff1680623495a4146100af578063057ae23514610104578063110f8874146101195780631998aeef146101465780634979440a146101685780634c73890914610191575b3373ffffffffffffffffffffffffffffffffffffffff166108fc349081150290604051600060405180830381858888f1935050505050005b34156100ba57600080fd5b6100c26101ba565b604051808273ffffffffffffffffffffffffffffffffffffffff1673ffffffffffffffffffffffffffffffffffffffff16815260200191505060405180910390f35b341561010f57600080fd5b6101176101e3565b005b341561012457600080fd5b61012c6102cb565b604051808215151515815260200191505060405180910390f35b61014e6103e6565b604051808215151515815260200191505060405180910390f35b341561017357600080fd5b61017b6104f5565b6040518082815260200191505060405180910390f35b341561019c57600080fd5b6101a46104ff565b6040518082815260200191505060405180910390f35b60008060009054906101000a900473ffffffffffffffffffffffffffffffffffffffff16905090565b6000809054906101000a900473ffffffffffffffffffffffffffffffffffffffff1673ffffffffffffffffffffffffffffffffffffffff163373ffffffffffffffffffffffffffffffffffffffff1614151561023e576102c9565b600060015411156102c857600180600082825403925050819055506000809054906101000a900473ffffffffffffffffffffffffffffffffffffffff1673ffffffffffffffffffffffffffffffffffffffff166108fc60019081150290604051600060405180830381858888f1935050505015156102c757600180600082825401925050819055505b5b5b565b600080600260003373ffffffffffffffffffffffffffffffffffffffff1673ffffffffffffffffffffffffffffffffffffffff16815260200190815260200160002054148061038b57503373ffffffffffffffffffffffffffffffffffffffff166108fc600260003373ffffffffffffffffffffffffffffffffffffffff1673ffffffffffffffffffffffffffffffffffffffff168152602001908152602001600020549081150290604051600060405180830381858888f19350505050155b1561039957600090506103e3565b6000600260003373ffffffffffffffffffffffffffffffffffffffff1673ffffffffffffffffffffffffffffffffffffffff16815260200190815260200160002081905550600190505b90565b60006001543411156104a957600154600260008060009054906101000a900473ffffffffffffffffffffffffffffffffffffffff1673ffffffffffffffffffffffffffffffffffffffff1673ffffffffffffffffffffffffffffffffffffffff16815260200190815260200160002081905550336000806101000a81548173ffffffffffffffffffffffffffffffffffffffff021916908373ffffffffffffffffffffffffffffffffffffffff16021790555034600181905550600190506104f2565b34600260003373ffffffffffffffffffffffffffffffffffffffff1673ffffffffffffffffffffffffffffffffffffffff16815260200190815260200160002081905550600090505b90565b6000600154905090565b6000600260003373ffffffffffffffffffffffffffffffffffffffff1673ffffffffffffffffffffffffffffffffffffffff168152602001908152602001600020549050905600a165627a7a72305820c7f76f46cb0af42719156ac6deebd7dc08b7b49071a45a1d79879c9b8e39da160029",
  "source": "pragma solidity 0.4.19;\n\nimport \"./AuctionInterface.sol\";\n\n/** @title GoodAuction */\ncontract GoodAuction is AuctionInterface {\n\n\t/* New data structure, keeps track of refunds owed */\n\tmapping(address => uint) refunds;\n\n\t/* \tBid function, now shifted to pull paradigm\n\t\tMust return true on successful send and/or bid, bidder\n\t\treassignment. Must return false on failure and\n\t\tallow people to retrieve their funds  */\n\tfunction bid() payable external returns(bool) {\n\t\tif (msg.value > highestBid) {\n\t\t\t\trefunds[highestBidder] = highestBid;\n\t\t\t\thighestBidder = msg.sender;\n\t\t\t\thighestBid = msg.value;\n\t\t\t\treturn true;\n\t\t}\n\n\t\trefunds[msg.sender] = msg.value;\n\t\treturn false;\n\t}\n\n\t/*  Implement withdraw function to complete new\n\t    pull paradigm. Returns true on successful\n\t    return of owed funds and false on failure\n\t    or no funds owed.  */\n\tfunction withdrawRefund() external returns(bool) {\n\t\tif (refunds[msg.sender] == 0 || !msg.sender.send(refunds[msg.sender])) {\n\t\t\treturn false;\n\t\t}\n\n\t\trefunds[msg.sender] = 0;\n\t\treturn true;\n\t}\n\n\t/*  Allow users to check the amount they are owed\n\t\tbefore calling withdrawRefund(). Function returns\n\t\tamount owed.  */\n\tfunction getMyBalance() constant external returns(uint) {\n\t\treturn refunds[msg.sender];\n\t}\n\n\n\t/*  Rewrite reduceBid from BadAuction to fix\n\t\tthe security vulnerabilities. Should allow the\n\t\tcurrent highest bidder only to reduce their bid amount */\n\tfunction reduceBid() external {\n\t\tif (msg.sender != highestBidder) {\n\t\t\treturn;\n\t\t}\n\t\tif (highestBid > 0) {\n\t\t\t\thighestBid -= 1;\n\t\t\t\tif(!highestBidder.send(1)) {\n\t\t\t\t\thighestBid += 1;\n\t\t\t\t}\n\t\t}\n\t}\n\n\t/* \tRemember this fallback function\n\t\tgets invoked if somebody calls a\n\t\tfunction that does not exist in this\n\t\tcontract. But we're good people so we don't\n\t\twant to profit on people's mistakes.\n\t\tHow do we send people their money back?  */\n\n\tfunction () payable {\n\t\tmsg.sender.send(msg.value);\n\t}\n\n}\n",
  "sourcePath": "/Users/felipe_campos/blockchain-dev/sp18-lab03/contracts/GoodAuction.sol",
  "compiler": {
    "name": "solc",
    "version": "0.4.19+commit.c4cbbb05.Emscripten.clang"
  },
  "schemaVersion": "1.0.1",
  "updatedAt": "2018-03-01T23:27:53.654Z"
}